{
  "_format": "hh-sol-artifact-1",
  "contractName": "ProfReview",
  "sourceName": "contracts/ProfReview.sol",
  "abi": [
    {
      "inputs": [
        {
          "internalType": "uint256",
          "name": "initprofID",
          "type": "uint256"
        }
      ],
      "stateMutability": "nonpayable",
      "type": "constructor"
    },
    {
      "anonymous": false,
      "inputs": [
        {
          "indexed": true,
          "internalType": "string",
          "name": "newReviews",
          "type": "string"
        },
        {
          "indexed": false,
          "internalType": "uint256",
          "name": "newRating",
          "type": "uint256"
        }
      ],
      "name": "UpdateReviews",
      "type": "event"
    },
    {
      "inputs": [
        {
          "internalType": "string",
          "name": "_newReview",
          "type": "string"
        },
        {
          "internalType": "uint256",
          "name": "_newRating",
          "type": "uint256"
        }
      ],
      "name": "addReview",
      "outputs": [],
      "stateMutability": "nonpayable",
      "type": "function"
    },
    {
      "inputs": [],
      "name": "profID",
      "outputs": [
        {
          "internalType": "uint256",
          "name": "",
          "type": "uint256"
        }
      ],
      "stateMutability": "view",
      "type": "function"
    },
    {
      "inputs": [],
      "name": "profRating",
      "outputs": [
        {
          "internalType": "uint256",
          "name": "",
          "type": "uint256"
        }
      ],
      "stateMutability": "view",
      "type": "function"
    }
  ],
  "bytecode": "0x608060405234801561001057600080fd5b5060405161049438038061049483398181016040528101906100329190610082565b806000819055506004600181905550506100af565b600080fd5b6000819050919050565b61005f8161004c565b811461006a57600080fd5b50565b60008151905061007c81610056565b92915050565b60006020828403121561009857610097610047565b5b60006100a68482850161006d565b91505092915050565b6103d6806100be6000396000f3fe608060405234801561001057600080fd5b50600436106100415760003560e01c8063169ebfe6146100465780634741daa314610064578063aac0039a14610082575b600080fd5b61004e61009e565b60405161005b919061011b565b60405180910390f35b61006c6100a4565b604051610079919061011b565b60405180910390f35b61009c600480360381019061009791906102bc565b6100aa565b005b60015481565b60005481565b816040516100b89190610389565b60405180910390207fd847af6e0a1e9c3dc7d0c7e7be8b551666a8aa619c62e40b7f0d009eab9f98d0826040516100ef919061011b565b60405180910390a2806001819055505050565b6000819050919050565b61011581610102565b82525050565b6000602082019050610130600083018461010c565b92915050565b6000604051905090565b600080fd5b600080fd5b600080fd5b600080fd5b6000601f19601f8301169050919050565b7f4e487b7100000000000000000000000000000000000000000000000000000000600052604160045260246000fd5b61019d82610154565b810181811067ffffffffffffffff821117156101bc576101bb610165565b5b80604052505050565b60006101cf610136565b90506101db8282610194565b919050565b600067ffffffffffffffff8211156101fb576101fa610165565b5b61020482610154565b9050602081019050919050565b82818337600083830152505050565b600061023361022e846101e0565b6101c5565b90508281526020810184848401111561024f5761024e61014f565b5b61025a848285610211565b509392505050565b600082601f8301126102775761027661014a565b5b8135610287848260208601610220565b91505092915050565b61029981610102565b81146102a457600080fd5b50565b6000813590506102b681610290565b92915050565b600080604083850312156102d3576102d2610140565b5b600083013567ffffffffffffffff8111156102f1576102f0610145565b5b6102fd85828601610262565b925050602061030e858286016102a7565b9150509250929050565b600081519050919050565b600081905092915050565b60005b8381101561034c578082015181840152602081019050610331565b60008484015250505050565b600061036382610318565b61036d8185610323565b935061037d81856020860161032e565b80840191505092915050565b60006103958284610358565b91508190509291505056fea2646970667358221220f45f720155371acf6bc27b7e909a2696f5d0fcb673d68a32fd471bf85932c71b64736f6c63430008120033",
  "linkReferences": {},
  "deployedLinkReferences": {}
}