{
  "_format": "hh-sol-artifact-1",
  "contractName": "ProfReview",
  "sourceName": "contracts/ProfReview.sol",
  "abi": [
    {
      "inputs": [],
      "stateMutability": "nonpayable",
      "type": "constructor"
    },
    {
      "anonymous": false,
      "inputs": [
        {
          "indexed": true,
          "internalType": "uint256",
          "name": "profID",
          "type": "uint256"
        },
        {
          "indexed": false,
          "internalType": "string",
          "name": "newReviews",
          "type": "string"
        },
        {
          "indexed": false,
          "internalType": "uint256",
          "name": "newRating",
          "type": "uint256"
        }
      ],
      "name": "UpdateReviews",
      "type": "event"
    },
    {
      "inputs": [
        {
          "internalType": "uint256",
          "name": "_profID",
          "type": "uint256"
        },
        {
          "internalType": "string",
          "name": "_newReview",
          "type": "string"
        },
        {
          "internalType": "uint256",
          "name": "_newRating",
          "type": "uint256"
        }
      ],
      "name": "addReview",
      "outputs": [],
      "stateMutability": "nonpayable",
      "type": "function"
    }
  ],
  "bytecode": "0x608060405234801561001057600080fd5b50336000806101000a81548173ffffffffffffffffffffffffffffffffffffffff021916908373ffffffffffffffffffffffffffffffffffffffff16021790555061049e806100606000396000f3fe608060405234801561001057600080fd5b506004361061002b5760003560e01c806394cdf85f14610030575b600080fd5b61004a600480360381019061004591906102a9565b61004c565b005b60008054906101000a900473ffffffffffffffffffffffffffffffffffffffff1673ffffffffffffffffffffffffffffffffffffffff163373ffffffffffffffffffffffffffffffffffffffff16146100da576040517f08c379a00000000000000000000000000000000000000000000000000000000081526004016100d19061039b565b60405180910390fd5b827f99ae29d9890e962ffeba94625d9f481d25b14776ddfa0261a1ef99bd3f70a845838360405161010c929190610438565b60405180910390a2505050565b6000604051905090565b600080fd5b600080fd5b6000819050919050565b6101408161012d565b811461014b57600080fd5b50565b60008135905061015d81610137565b92915050565b600080fd5b600080fd5b6000601f19601f8301169050919050565b7f4e487b7100000000000000000000000000000000000000000000000000000000600052604160045260246000fd5b6101b68261016d565b810181811067ffffffffffffffff821117156101d5576101d461017e565b5b80604052505050565b60006101e8610119565b90506101f482826101ad565b919050565b600067ffffffffffffffff8211156102145761021361017e565b5b61021d8261016d565b9050602081019050919050565b82818337600083830152505050565b600061024c610247846101f9565b6101de565b90508281526020810184848401111561026857610267610168565b5b61027384828561022a565b509392505050565b600082601f8301126102905761028f610163565b5b81356102a0848260208601610239565b91505092915050565b6000806000606084860312156102c2576102c1610123565b5b60006102d08682870161014e565b935050602084013567ffffffffffffffff8111156102f1576102f0610128565b5b6102fd8682870161027b565b925050604061030e8682870161014e565b9150509250925092565b600082825260208201905092915050565b7f4f6e6c7920746865206f776e65722063616e2063616c6c20746869732066756e60008201527f6374696f6e210000000000000000000000000000000000000000000000000000602082015250565b6000610385602683610318565b915061039082610329565b604082019050919050565b600060208201905081810360008301526103b481610378565b9050919050565b600081519050919050565b60005b838110156103e45780820151818401526020810190506103c9565b60008484015250505050565b60006103fb826103bb565b6104058185610318565b93506104158185602086016103c6565b61041e8161016d565b840191505092915050565b6104328161012d565b82525050565b6000604082019050818103600083015261045281856103f0565b90506104616020830184610429565b939250505056fea264697066735822122017870584014348191f5a7f46769dde7dab197c1c6a49a66d804f95b9395e196764736f6c63430008120033",
  "linkReferences": {},
  "deployedLinkReferences": {}
}